S00E0000752D626F6F742E73726563C0
S31587800000B80000EA14F09FE514F09FE514F09FE5A9
S3158780001014F09FE514F09FE514F09FE514F09FE5B3
S3158780002060008087C00080872001808780018087E5
S31587800030E001808740028087A0028087EFBEADDEA1
S315878000402000900000F020E300F020E300F020E31A
S3158780005000F020E300F020E300F020E300F020E3C7
S3158780006028D01FE500E08DE500E04FE104E08DE5CF
S3158780007013D0A0E30DF069E10FE0A0E10EF0B0E1C7
S3158780008048D04DE2FF1F8DE850201FE50C0092E88F
S3158780009048008DE234508DE20E10A0E10F0085E88E
S315878000A00D00A0E1E20500FA00F020E300F020E3EE
S315878000B000F020E300F020E300F020E300F020E367
S315878000C088D01FE500E08DE500E04FE104E08DE50F
S315878000D013D0A0E30DF069E10FE0A0E10EF0B0E167
S315878000E048D04DE2FF1F8DE8B0201FE50C0092E8CF
S315878000F048008DE234508DE20E10A0E10F0085E82E
S315878001000D00A0E1D40500FA00F020E300F020E39B
S3158780011000F020E300F020E300F020E300F020E306
S31587800120E8D01FE500E08DE500E04FE104E08DE54E
S3158780013013D0A0E30DF069E10FE0A0E10EF0B0E106
S3158780014048D04DE2FF1F8DE810211FE50C0092E80D
S3158780015048008DE234508DE20E10A0E10F0085E8CD
S315878001600D00A0E1C60500FA00F020E300F020E349
S3158780017000F020E300F020E300F020E300F020E3A6
S3158780018048D11FE500E08DE500E04FE104E08DE58D
S3158780019013D0A0E30DF069E10FE0A0E10EF0B0E1A6
S315878001A048D04DE2FF1F8DE870211FE50C0092E84D
S315878001B048008DE234508DE20E10A0E10F0085E86D
S315878001C00D00A0E1B80500FA00F020E300F020E3F7
S315878001D000F020E300F020E300F020E300F020E346
S315878001E0A8D11FE500E08DE500E04FE104E08DE5CD
S315878001F013D0A0E30DF069E10FE0A0E10EF0B0E146
S3158780020048D04DE2FF1F8DE8D0211FE50C0092E88C
S3158780021048008DE234508DE20E10A0E10F0085E80C
S315878002200D00A0E1AA0500FA00F020E300F020E3A4
S3158780023000F020E300F020E300F020E300F020E3E5
S3158780024008D21FE500E08DE500E04FE104E08DE50B
S3158780025013D0A0E30DF069E10FE0A0E10EF0B0E1E5
S3158780026048D04DE2FF1F8DE830221FE50C0092E8CB
S3158780027048008DE234508DE20E10A0E10F0085E8AC
S315878002800D00A0E1A60500FA00F020E300F020E348
S3158780029000F020E300F020E300F020E300F020E385
S315878002A068D21FE500E08DE500E04FE104E08DE54B
S315878002B013D0A0E30DF069E10FE0A0E10EF0B0E185
S315878002C048D04DE2FF1F8DE890221FE50C0092E80B
S315878002D048008DE234508DE20E10A0E10F0085E84C
S315878002E00D00A0E1840500FA120000EA00000FE104
S315878002F01F1000E21A0031E31F00C013130080131A
S31587800300C00080E300F029E1100F11EE020AC0E3F6
S31587800310100F01EE84009FE5100F0CEE060000EBB0
S315878003201D0000EBC50200EB150F07EE9A0F07EE4F
S31587800330950F07EE1EFF2FE1EBFFFFEA0000A0E394
S31587800340170F08EE150F07EED50F07EE9A0F07EEF4
S31587800350950F07EE100F11EE020AC0E30700C0E380
S31587800360020080E3020B80E3010A80E3100F01EE2F
S315878003700E50A0E1101F10EE213AA0E10F3003E264
S315878003800F4001E20322A0E1022084E110009FE56D
S315878003900700C0E300D0A0E105F0A0E1980200EA5B
S30D878003A00000808720FF910091
S315878003A8FEE70148704700BF030000800048704712
S315878003B80300008000487047030000800048704724
S315878003C80300008000487047030000800048704714
S315878003D80300008000487047030000802DE9F041BC
S315878003E80C460D6832F0F6FC194A0027136853B312
S315878003F85CB3BC46D2F804E0D2F80880E64501D1DA
S31587800408144C17E0D3E90206854277EB060216D3A2
S31587800418D3E90621090341EA12511203121846EBDA
S315878004280101954277EB010209D21B691B1A2B4476
S315878004382360002432F0E2FC2046BDE8F0810CF187
S31587800448010C4344DAE7044CF4E7044CF2E700BF2F
S31587800458F00680870E0000800300008002000080F7
S3158780046810B5044600202146E268206100F05AF8D4
S31587800478206110BD00487047030000800048704798
S315878004880300008000487047030000800048704753
S3158780049803000080F0B58C070ED06AB1204C11F81E
S315878004A8013B013A83EA0003DBB254F8233083EAB7
S315878004B8102001D08B07F2D10E4602F00303184C21
S315878004C822F003025718B74211D1043A11446BB107
S315878004D80333134CCA1C194412F8013F4340DBB2D5
S315878004E854F823308A4283EA1020F5D1F0BD56F82E
S315878004F8045B6840C5B254F8255085EA1025E8B26A
S3158780050854F8200080EA1525E8B254F8200080EA56
S315878005181520C5B254F8255085EA1020D3E700BF41
S315878005285007808708B5C043FFF7B4FFC04308BD27
S315878005380448054B10300364044B8361044BC361BD
S31587800548FFF78EBFF0068087A9038087AB038087EE
S31587800558B50380872DE9F04D06460C462B4DDFF887
S31587800568B0802C4F454505D32B4B1E60BDE8F04D93
S3158780057800F0A6BBD9F83C30D5F800A003F1F14C3A
S315878005880AEB0C005CB1254B984202D334339842E8
S315878005981FD9234B98421CD0043B984219D02A7975
S315878005A8172A11D11C4B1A685AF80C30B21A134479
S315878005B88CB900F143014AF80C3021F03F0120F0CD
S315878005C83F0000F0ABFB04E000233946154840F02E
S315878005D8D6F90835C6E70022D4E904BE5B4572EBAF
S315878005E80E020DD3D4E90612120342EA1152090381
S315878005F811EB0B014EEB0202994272F10002D8D2B7
S3158780060802463946084840F0BAF9E2E7DCC2868767
S315878006187CC38687CE788487A497868718078087BA
S315878006288C068087340680875606808725733A2086
S31587800638556E6B6E6F776E2072656C6F6361746942
S315878006486F6E207479706520256C6C780A0025739F
S315878006583A2052656C6F636174696F6E2061742006
S315878006682570206973206F7574206F662072616E16
S3158780067867652028256C78290A0000000000000015
S3158780068888068087880680874942492053595354E4
S3158780069850000200480000000000000000000000AB
S315878006A8D80680870004202000000000000000000C
S315878006B80000000000000000000000000000000025
S315878006C80007808700000000000000000000000007
S315878006D8440061007300200055002D0042006F009A
S315878006E86F00740000000000000000000000000012
S315878006F8000000000000000052554E54534552565C
S315878007085000020050000000000000000000000032
S315878007184D85838739858387BD038087BD03808792
S3158780072899858387E5038087698B8387D58C838734
S31587800738698E8387BD038087F1848387D50380877E
S31587800748DD038087950480870000000096300777C9
S315878007582C610EEEBA51099919C46D078FF46A70A0
S3158780076835A563E9A395649E3288DB0EA4B8DC79C0
S315878007781EE9D5E088D9D2972B4CB609BD7CB17E40
S31587800788072DB8E7911DBF906410B71DF220B06A10
S315878007984871B9F3DE41BE847DD4DA1AEBE4DD6D20
S315878007A851B5D4F4C785D38356986C13C0A86B6420
S315878007B87AF962FDECC9658A4F5C0114D96C066340
S315878007C8633D0FFAF50D088DC8206E3B5E10694C20
S315878007D8E44160D5727167A2D1E4033C47D4044B60
S315878007E8FD850DD26BB50AA5FAA8B5356C98B24240
S315878007F8D6C9BBDB40F9BCACE36CD832755CDF45C0
S31587800808CF0DD6DC593DD1ABAC30D9263A00DE51EF
S315878008188051D7C81661D0BFB5F4B42123C4B356DF
S315878008289995BACF0FA5BDB89EB802280888055F5F
S31587800838B2D90CC624E90BB1877C6F2F114C6858BF
S31587800848AB1D61C13D2D66B69041DC760671DB01AD
S31587800858BC20D2982A10D5EF8985B1711FB5B6067F
S31587800868A5E4BF9F33D4B8E8A2C9077834F9000FBF
S315878008788EA8099618980EE1BB0D6A7F2D3D6D085F
S31587800888976C6491015C63E6F4516B6B62616C1C4F
S31587800898D83065854E0062F2ED95066C7BA5011B7F
S315878008A8C1F4088257C40FF5C6D9B06550E9B7121F
S315878008B8EAB8BE8B7C88B9FCDF1DDD62492DDA15DF
S315878008C8F37CD38C654CD4FB5861B24DCE51B53AFF
S315878008D87400BCA3E230BBD441A5DF4AD795D83DFF
S315878008E86DC4D1A4FBF4D6D36AE96943FCD96E343F
S315878008F8468867ADD0B860DA732D0444E51D03331F
S315878009085F4C0AAAC97C0DDD3C710550AA4102272E
S3158780091810100BBE86200CC925B56857B3856F20FE
S3158780092809D466B99FE461CE0EF9DE5E98C9D9295E
S315878009382298D0B0B4A8D7C7173DB359810DB42E9E
S315878009483B5CBDB7AD6CBAC02083B8EDB6B3BF9AEA
S315878009580CE2B6039AD2B1743947D5EAAF77D29D76
S315878009681526DB048316DC73120B63E3843B649456
S315878009783E6A6D0DA85A6A7A0BCF0EE49DFF099356
S3158780098827AE000AB19E077D44930FF0D2A30887C6
S3158780099868F2011EFEC206695D5762F7CB67658076
S315878009A871366C19E7066B6E761BD4FEE02BD38976
S315878009B85A7ADA10CC4ADD676FDFB9F9F9EFBE8ED6
S315878009C843BEB717D58EB060E8A3D6D67E93D1A116
S315878009D8C4C2D83852F2DF4FF167BBD16757BCA6F6
S315878009E8DD06B53F4B36B248DA2B0DD84C1B0AAF96
S315878009F8F64A0336607A0441C3EF60DF55DF67A816
S31587800A08EF8E6E3179BE69468CB361CB1A8366BCA5
S31587800A18A0D26F2536E2685295770CCC03470BBBF5
S31587800A28B91602222F260555BE3BBAC5280BBDB2F5
S31587800A38925AB42B046AB35CA7FFD7C231CFD0B595
S31587800A488B9ED92C1DAEDE5BB0C2649B26F263EC87
S31587800A589CA36A750A936D02A906099C3F360EEB95
S31587800A688567077213570005824ABF95147AB8E255
S31587800A78AE2BB17B381BB60C9B8ED2920DBED5E535
S31587800A88B7EFDC7C21DFDB0BD4D2D38642E2D4F185
S31587800A98F8B3DD686E83DA1FCD16BE815B26B9F615
S31587800AA8E177B06F7747B718E65A0888706A0FFF75
S31587800AB8CA3B06665C0B0111FF9E658F69AE62F835
S31587800AC8D3FF6B6145CF6C1678E20AA0EED20DD735
S31587800AD85483044EC2B30339612667A7F71660D055
S31587800AE84D476949DB776E3E4A6AD1AEDC5AD6D995
S31587800AF8660BDF40F03BD83753AEBCA9C59EBBDEB5
S31587800B087FCFB247E9FFB5301CF2BDBD8AC2BACA64
S31587800B183093B353A6A3B4240536D0BA9306D7CDD4
S31587800B282957DE54BF67D9232E7A66B3B84A61C4F4
S31587800B38021B685D942B6F2A37BE0BB4A18E0CC3B4
S31587800B481BDF055A8DEF022D500B8087500B8087C8
S30D87800B58FFFFFFFFFFFFFFFF90
S31587800B605FF07FF5300F30EEA03BA0E10E3013E2C9
S31587800B701C00000A00A0A0E3AA208AE03012A0E128
S31587800B80071001E2020051E3130000BA10AF40EE6E
S31587800B906FF07FF5101F30EE072001E2042082E296
S31587800BA0FF4300E3A14114E0145F6FE1FF7F07E312
S31587800BB0A17617E00790A0E11465A0E106B08AE1E7
S31587800BC01962A0E106B08BE15EBF07EE019059E21C
S31587800BD0F8FFFFAA014054E2F5FFFFAA02A08AE246
S31587800BE00A0053E1E3FFFFCA00A0A0E310AF40EEFF
S31587800BF04EF07FF56FF07FF51EFF2FE1F04E2DE9E2
S31587800C00D6FFFFEBF04EBDE81EFF2FE15FF07FF545
S31587800C10300F30EEA03BA0E10E3013E21C00000AB5
S31587800C2000A0A0E3AA208AE03012A0E1071001E2A3
S31587800C30020051E3130000BA10AF40EE6FF07FF5E4
S31587800C40101F30EE072001E2042082E2FF4300E393
S31587800C50A14114E0145F6FE1FF7F07E3A17617E078
S31587800C600790A0E11465A0E106B08AE11962A0E148
S31587800C7006B08BE156BF07EE019059E2F8FFFFAACF
S31587800C80014054E2F5FFFFAA02A08AE20A0053E1F7
S31587800C90E3FFFFCA00A0A0E310AF40EE4EF07FF5DA
S31587800CA06FF07FF51EFF2FE1F04E2DE9D6FFFFEB24
S31587800CB0F04EBDE81EFF2FE1100F11EE0200C0E354
S31587800CC0100F01EE1EFF2FE1002307EE153F07EE7B
S31587800CD0D53FBFF34F8FBFF36F8F7047704770478E
S31587800CE0704708B5FFF78AEFBDE80840FFF7F8BF7A
S31587800CF0704708B5FFF7D8EFBDE80840FFF7F8BF1C
S31587800D0008B5FFF7EBFFFFF7F4FF002308EE173FE1
S31587800D1008EE163F08EE153FBFF34F8FBFF36F8FF1
S31587800D2008BD704738B504460D4600F027FE30EE7D
S31587800D30103F012203F0070304339A40534223402E
S31587800D409D4207D8BFF34F8F29462046BDE8384056
S31587800D50FFF7E7BF07EE3E3F1344F1E708B5FFF796
S31587800D60E1FF002308EE173F08EE163F08EE153F92
S31587800D70BFF34F8FBFF36F8F08BD704770B504463B
S31587800D800D4600F0FBFD30EE106F2946204600F0B9
S31587800D90F5FD40B1012306F00706043603FA06F609
S31587800DA023469D4207D8BFF34F8F29462046BDE805
S31587800DB07040FFF7E2BF07EE363F3344F1E770476F
S31587800DC010B5044600F06BFCE3070DD500F08AFE6C
S31587800DD0FFF785FFFFF78DFF00F044FEFFF774FF6F
S31587800DE0FFF7EDFF002010BD00F03CFEFFF76CFF9C
S31587800DF0FFF777FFFFF768FF00F02BFEF0E703200A
S31587800E00FFF7DEBF18D09FE507D0CDE3E0D04DE270
S31587800E1007D0CDE30D90A0E100502DE9FA0700FABF
S31587800E200090BDE820FF91000000000000000000D0
S31587800E3000000000000000000000000000000000A5
S31587800E4078009FE50700C0E300D0A0E19D2E00FAD9
S31587800E5000D0A0E10090A0E19D2E00FA0000A0E3DB
S31587800E60EC3400FA4C0099E50700C0E300D0A0E196
S31587800E70009099E5E09049E20CE08FE2500099E591
S31587800E8000E08EE03C0099E5030100EAFF0000EB75
S31587800E9024FDFFEB28009FE528309FE50010A0E31F
S31587800EA0002053E00D0000FAB73400FBB73400FA10
S31587800EB00900A0E13C1099E50CE09FE51EFF2FE134
S31587800EC020FF91007CC3868734788887E5E380878F
S31587800ED00000000000000000000000000000000005
S31587800EE010F0030384463DD141EA012141EA01415D
S31587800EF00B46102A1FDB2DE9004188468E46403AED
S31587800F00A1BFACE80A41ACE80A41ACE80A41ACE843
S31587800F100A41F4DC08BFBDE8008112F0200F1CBFB0
S31587800F20ACE80A41ACE80A4112F0100F18BFACE86A
S31587800F300A41BDE8004112F0080F18BFACE80A00E5
S31587800F4012F0040F18BF4CF8041B12F0020F1CBF57
S31587800F500CF8011B0CF8011B12F0010F18BF0CF857
S31587800F60011B7047043AF0DB022BB8BF0CF8011BD4
S31587800F70D8BF0CF8011B0CF8011B1A44B4E700BFD5
S31587800F80884208BF70472DE91140043A4BDB10F041
S31587800F90030C91F800F05AD111F0030C71D11C3AE9
S31587800FA02DE9E00114DB91F800F0603A91F81CF0A6
S31587800FB005DB91F83CF091F85CF091F87CF0B1E82C
S31587800FC0F851203AA0E8F851F7DA12F1600FF6DA8D
S31587800FD012F01C0CCCF1200C18BFE74421E0AFF34C
S31587800FE0008051F8043B51F8044B51F8045B51F863
S31587800FF0046B51F8047B51F8048B51F804EBE74472
S3158780100000BFAFF3008040F8043B40F8044B40F8BC
S31587801010045B40F8046B40F8047B40F8048B40F807
S3158780102004EBBDE8E001D20718BF11F8013B24BF66
S3158780103011F8014B11F801CB18BF00F8013B24BF8B
S3158780104000F8014B00F801CBBDE811407047CCF121
S31587801050040CBCF1020FC8BF11F8013BA8BF11F879
S31587801060014B11F801EBC8BF00F8013BA8BF00F818
S31587801070014BB2EB0C0200F801EBD4DB11F0030CC9
S315878010808DD021F00301BCF1020F51F804EB4ED0CD
S3158780109000F39A801C3A39DB2DE9E00391F800F05A
S315878010A0603A91F81CF005DB91F83CF091F85CF09A
S315878010B091F87CF0F0C94FEA1E23203AB1E80053B5
S315878010C043EA04634FEA142444EA05644FEA152504
S315878010D045EA06654FEA162646EA07664FEA1727E0
S315878010E047EA08674FEA182848EA09684FEA1929BC
S315878010F049EA0C694FEA1C2C4CEA0E6CA0E8F81377
S31587801100D6DA12F1600FD5DABDE8E00312F01C0C4F
S315878011100AD04FEA1E2351F804EBBCF1040C43EA4C
S315878011200E6340F8043BF4DCA1F103017BE71C3AAC
S3158780113039DB2DE9E00391F800F0603A91F81CF0ED
S3158780114005DB91F83CF091F85CF091F87CF0F0C97A
S315878011504FEA1E43203AB1E8005343EA04434FEAF5
S31587801160144444EA05444FEA154545EA06454FEA5D
S31587801170164646EA07464FEA174747EA08474FEA39
S31587801180184848EA09484FEA194949EA0C494FEA13
S315878011901C4C4CEA0E4CA0E8F813D6DA12F1600F95
S315878011A0D5DABDE8E00312F01C0C0AD04FEA1E435D
S315878011B051F804EBBCF1040C43EA0E4340F8043B38
S315878011C0F4DCA1F102012EE71C3A39DB2DE9E00335
S315878011D091F800F0603A91F81CF005DB91F83CF0C5
S315878011E091F85CF091F87CF0F0C94FEA1E63203A5B
S315878011F0B1E8005343EA04234FEA146444EA05249A
S315878012004FEA156545EA06254FEA166646EA0726B2
S315878012104FEA176747EA08274FEA186848EA09288E
S315878012204FEA196949EA0C294FEA1C6C4CEA0E2C5D
S31587801230A0E8F813D6DA12F1600FD5DABDE8E003B5
S3158780124012F01C0C0AD04FEA1E6351F804EBBCF1EE
S31587801250040C43EA0E2340F8043BF4DCA1F1010138
S31587801260E1E600BF0DC0A0E1F05F80E80000A0E363
S315878012701EFF2FE1F05F90E80CD0A0E10100A0E18E
S31587801280000050E30000001A0100A0E31EFF2FE153
S315878012903C0099E5100F0CEE1EFF2FE14C109FE561
S315878012A0014050E01000000A44209FE5000CB1E819
S315878012B0000CA0E8020051E1FBFFFF3A34209FE54E
S315878012C034309FE50300B2E8FF1001E2170051E34F
S315878012D00300001A040080E0001090E5041081E086
S315878012E0001080E5030052E1F5FFFF3A1EFF2FE1EC
S315878012F0000080877CC386877CC386879C97878701
S315878013001FB50023D9F80020916CD26CCDE90013E4
S31587801310CDE902236946012302AA0EF041F805B07A
S315878013205DF804FBD9F800206946D26CA1F5805117
S315878013308AB1D9F80020926C8A420CD8D9F80020D5
S31587801340D9F80030926CDB6C1A44531E994202D8C6
S31587801350521A3DF0DABD70477047000073B5D9F8E9
S31587801360003005461B6C066E1B480C4601930BF0B6
S31587801370EDF948B1102101AA3FF0B6FB002824DB9E
S31587801380019916483FF0FFFA0F200BF0ADFAAD2092
S315878013900BF0AAFA1FF0D0FBFFF7DEFF104B11493F
S315878013A004F40074002C08BF19460F483FF0EBFA07
S315878013B04FF4C06016F006FEFFF721FD2B6F33B121
S315878013C0EA6E14B920460199B04702B070BDD9F844
S315878013D000305A6CF5E700BFAA8A8487B18A8487EA
S315878013E033C18487938A8487D68A848770477047F0
S315878013F02DE9F745054651480BF0A8F92B6F064628
S3158780140053B1284612F059F8002800F083804C485B
S315878014103FF0B9FA3DF054FC0521D9F80020494CB4
S31587801420526CDFF824C12260C2E9001CD4F80080A0
S315878014306846D8F800A0C8F8083008EB8A07C8F845
S315878014400C30C8F81030276001F0A2FC3F4B7B60D8
S31587801450042348F82A30009BBB60019BFB6007F119
S31587801460100323604B461B68CEB13046064610F87C
S31587801470013B202BFAD093B1354B30467B613EF0CA
S315878014808BFA23680D3080081860206831460830CB
S315878014903EF022FA23681A6803EB8203236001F001
S315878014A011FA0322042723682A4EC3E90026236874
S315878014B0294E1968986003EB81002060D9F800204F
S315878014C0466043F821702368916C1868D960D26C1E
S315878014D003EB80069A60696F266009B3AA6FFAB1B3
S315878014E0CC46DCF800C0DFF874C0C6F804C043F881
S315878014F020702368521ADA601A68996003EB820330
S3158780150023601048FFF772FF4B4600221B682368CB
S315878015105A601A60284603B0BDE8F045FFF767BF73
S31587801520696E0029EDD0AA6E002AEAD04F463F68B9
S315878015300A4F7760042643F82060DAE76CAD8487A4
S31587801540EF8A84877CC3868701004154060041548D
S315878015500900415407004154020041540500425412
S31587801560F8B510F0C00504461E4618D110F480776A
S3158780157004D01846FFF73CFF2846F8BD10F4C065AF
S3158780158005D001461846FFF7E9FE3D46F4E718463B
S31587801590FFF72EFF21463046FFF7E0FEECE74FF058
S315878015A0FF35E9E710B50446C06E58B107493CF068
S315878015B0E3F8002806DDE06EFFF7A2FE10B1044847
S315878015C010F0B1FCBDE81040FFF719BC0F8B8487FC
S315878015D0178B8487036EC06E1847000010B590F806
S315878015E0254090F8243043EA042390F8264043EA3E
S315878015F0044390F8274043EA0463184CA34207D0F4
S31587801600174CA34204D0174810F08DFC012010BDDB
S3158780161090F8294090F8283043EA042390F82A40A6
S3158780162043EA044390F82B4043EA04630B6090F8BF
S315878016302D4090F82C3043EA042390F82E4043EAD5
S31587801640044390F82F4043EA046313600A6801468F
S3158780165005483FF098F90020D9E700BF18286F0121
S31587801660626F7800018E8487158E8487D9F84C209F
S315878016700020C9F84820D9F84C20103AC9F84C2060
S31587801680704736F073B90000D9F84830024A083374
S3158780169000201360704700BF400080877047002016
S315878016A07047000008B501483EF016FC448384875E
S315878016B02DE9F0450446A3B080224D4902A8FFF75D
S315878016C05FFCA26BE16B4B48256C3FF05CF9D9F8E0
S315878016D0042005F07046D2070AD5D9F85010A06B3A
S315878016E0D9F85020E36B821A591A43483FF04BF951
S315878016F0E36A226B616B41483FF045F9236A626AE8
S31587801700A16A3F483FF03FF923693E480093636962
S31587801710A269E1693FF037F923683B480093E1681E
S315878017206368A2683FF02FF9002EB4BF4E216E21E1
S3158780173015F0804F14BF5A227A2215F0005F14BFA6
S315878017404323632315F0805F14BF5620762000904D
S315878017502E483FF018F9236C2D4A2E4813F0800FB8
S3158780176014BF0146114613F0400F18BF024622ADBB
S3158780177003F01F0005EB8000274D13F0200F274BC2
S3158780178008BF2B46009350F8803C25483FF0FBF8EE
S31587801790276CE56B17F0200716D1082625F00305F9
S315878017A015E035F81420002C0CBF4046504631464C
S315878017B03FF0E9F8013413E0022CF2D1194823B0BF
S315878017C0BDE8F0453FF0DFB8042625F001051648C9
S315878017D03FF0D9F86FF00304DFF85080DFF850A028
S315878017E0002FE9D1002CE9DC55F82420DBE700BF00
S315878017F0D84384873D248587372485875F24858753
S3158780180083248587A7248587D72485870725858702
S31587801810EE2085878AA6848733C184872424858713
S31587801820172585874615858736258587292485873C
S3158780183031248587044608B531F092FC06483FF007
S31587801840A2F8E36B2046043BE363FFF731FFE06B47
S31587801850FFF717FFFFF726FF27CC8487044608B54F
S3158780186031F07EFC06483FF08EF8E36B2046043BDA
S31587801870E363FFF71DFFE06BFFF703FFFFF712FFB9
S3158780188027CA8487044608B531F06AFC06483FF044
S315878018907AF8E36B2046083BE363FFF709FFE06B43
S315878018A0FFF7EFFEFFF7FEFE05C98487044608B576
S315878018B031F056FC06483FF066F8E36B2046083BD6
S315878018C0E363FFF7F5FEE06BFFF7DBFEFFF7EAFEE4
S315878018D023AE8487044608B531F042FC06483FF03C
S315878018E052F8E36B2046083BE363FFF7E1FEE06B44
S315878018F0FFF7C7FEFFF7D6FEC6C88487044608B5B6
S3158780190031F02EFC06483FF03EF8E36B2046083BD5
S31587801910E363FFF7CDFEE06BFFF7B3FEFFF7C2FE0B
S31587801920BEB68487044608B531F01AFC06483FF070
S315878019302AF8E36B2046083BE363FFF7B9FEE06B43
S31587801940FFF79FFEFFF7AEFEC3B6848708B50848C4
S3158780195010F0E9FA4CF250303EF060F9FFF79FFEBF
S3158780196001F053FA00201FF079FA002008BD00BFE6
S31587801970DEC984870144FFF7D5B9000008B540EAF8
S3158780198001039B060A4605D0014603483EF0FBFFC6
S31587801990002008BD0120FCE76E8E848710B511EE86
S315878019A0103F042815D15B0712D511EE104FFFF72C
S315878019B098F924F0040301EE103FBFF36F8FFFF78A
S315878019C090F9052024EA000401EE104FBFF36F8F4C
S315878019D010BD11EE104FF5E77047D9F8D03041EA40
S315878019E0005141F4406143F82010704701F57F2309
S315878019F070B503F6FF73050D03442846D9F8D06082
S31587801A001C0DA0420CD306EB840106EB8500BDE84E
S31587801A1070403F3121F03F0120F03F00FFF79EB9AC
S31587801A201146FFF7DAFF0130EBE708B5D9F80020D2
S31587801A3002EBC002906C000DD36C916C1B0D03EB8F
S31587801A401153834200D808BD1E21FFF7C6FF013098
S31587801A50F2E711EE103F43F4805301EE103FBFF358
S31587801A606F8F70474FF48050FFF798BF11EE100F36
S31587801A70C0F30030704710B511EE104F14F0010493
S31587801A8027D1FFF73DF9204612210134FFF7A5FFBD
S31587801A90B4F5805FF7D10020FFF7C7FF002302EEFA
S31587801AA0503FD9F8D03023F47F5323F03F0343F058
S31587801AB0590302EE103F4FF0FF3303EE103FFFF7D7
S31587801AC08BFF11EE103F43F0010301EE103FBFF30A
S31587801AD06F8F11EE103F43F0040301EE103FBFF383
S31587801AE06F8F10BD0420FFF759BF11EE100FC0F31B
S31587801AF0800070472DE9F34D4FEA111B060E0BF0D8
S31587801B00200346EA012605460C46C0F30B08C1F337
S31587801B10051A8F0A019300F0E9FDC0F3083065281E
S31587801B20C6F30B0624D10BF0200373BB00F0DEFDD2
S31587801B30000B00F0F00070282DD1224B1B6843F8EC
S31587801B4008A01EB11F4B240F1B689C51BB0307D46B
S31587801B50C5F30B3525B11B4BC7F311071B685F513F
S31587801B60019B13B1174B184A1A6002B0BDE8F08DF6
S31587801B7000F0BCFDC0F308306B28D4D000F0B6FDEA
S31587801B80C0F308306728D1D1CDE70E4B0F4A0BF0CB
S31587801B901F0A1A60CAE700F0A9FDC0F308306528D6
S31587801BA0CBD000F0A3FDC0F308306B28C5D000F0FA
S31587801BB09DFDC0F308306728BFD0B8F1000FBCD130
S31587801BC0BFE700BFE8B1858700000E0200002902C3
S31587801BD070B504460D460026AE4200D170BDF4E846
S31587801BE002010136FFF786FFF6E70000054B1A6884
S31587801BF0013204D1044A9268BFF35F8F1A601868EE
S31587801C00704700BFECB1858700800D0208B5FFF766
S31587801C10EDFF2028024626D012D8082825D007D857
S31587801C20012824D0164B1748042A18BF184608BDA2
S31587801C3010281ED0124B1448112A18BF1846F6E76B
S31587801C40B0F5807F17D007D8402816D00C4B0F4821
S31587801C50802A18BF1846EAE7094B0D48B2F5803FB8
S31587801C6018BF1846E3E70B48E1E70B48DFE70648E6
S31587801C70DDE70A48DBE70A48D9E70A48D7E700BF9E
S31587801C8043F7848761F7848751F7848777F78487D3
S31587801C908BF7848755F784877DF7848786F784874C
S31587801CA065F784876FF7848710B50446FFF7AEFF9D
S31587801CB0014620463DF010FE034B1A68BFF35F8FBF
S31587801CC0024B9A6010BD00BFECB1858700800D02FC
S31587801CD08F2800F28D80502803D8774870477748B9
S31587801CE0704751383E28F8D801A353F820F000BFB3
S31587801CF0A91E8087DB1C8087AD1E8087DB1C80873B
S31587801D00DB1C8087DB1C8087DB1C8087DB1C8087CE
S31587801D10DB1C8087DB1C8087DB1C8087DB1C8087BE
S31587801D20DB1C8087DB1C8087DB1C8087911E8087F6
S31587801D30891E8087991E8087811E80879D1E8087C2
S31587801D40A11E80878D1E8087951E80877D1E8087B2
S31587801D50791E8087851E8087A51E8087DB1C808766
S31587801D60DB1C8087DB1C8087DB1C8087DB1C80876E
S31587801D70711E8087751E8087DB1C8087DB1C80872A
S31587801D80DB1C8087DB1C8087DB1C8087DB1C80874E
S31587801D90DB1C8087DB1C8087DB1C8087DB1C80873E
S31587801DA0DB1C8087DB1C8087DB1C8087DB1C80872E
S31587801DB0DB1C8087651E80876D1E8087691E80876E
S31587801DC04D1E8087511E8087551E8087591E808726
S31587801DD05D1E8087611E8087ED1D8087B51E808703
S31587801DE0311E8087351E8087391E808734487047A5
S31587801DF06FF4C073184407283FF66FAF07283FF6FE
S31587801E006CAF01A353F820F03D1E8087411E8087E3
S31587801E10451E8087491E8087B11E80872D1E8087B5
S31587801E20291E8087DF1C808726487047264870470B
S31587801E302648704726487047264870472648704701
S31587801E4026487047264870472648704726487047F1
S31587801E5026487047264870472648704726487047E1
S31587801E6026487047264870472648704726487047D1
S31587801E7026487047264870472648704726487047C1
S31587801E8026487047264870472648704726487047B1
S31587801E9026487047264870472648704726487047A1
S31587801EA02648704726487047264870472648704791
S31587801EB02648704726487047D2F58487EFF584870A
S31587801EC0F5F68487DCF58487E8F5848707F6848743
S31587801ED013F6848723F6848733F6848743F6848745
S31587801EE059F684876FF6848785F684878AF684870A
S31587801EF090F6848795F684879BF68487A0F6848771
S31587801F00A6F68487AAF68487B2F68487B6F6848708
S31587801F10B9F68487BCF68487C0F68487C4F68487B7
S31587801F20C7F68487CAF68487CEF68487D4F684876D
S31587801F30D8F68487DDF68487E1F68487E5F6848715
S31587801F40EAF68487EFF68487F2F68487D5F58487E1
S31587801F50FBF5848730B585B000F0C8FB0246C0F3B1
S31587801F600830FFF7B5FE02F00F030146C2F303126E
S31587801F702A483EF008FD00F007FC294C0546B8B98B
S31587801F80002001F023FFA0FB04012648890C3EF040
S31587801F90FAFC25480FF0C7FF03A902A800F06EFC5C
S31587801FA0022837D0032815D0012835D11F4812E05B
S31587801FB0002001F00BFFA842E2D0002001F006FF47
S31587801FC0A0FB0402A5FB0441920C890C18483EF0BD
S31587801FD0DAFCDEE717480FF0A6FFDDE9021216481E
S31587801FE03EF0D1FC6A4600215A2016F0B6F940B9F0
S31587801FF0009801A91EF040FF18B901990F483EF055
S31587802000C2FCFFF703FE01460D483EF0BCFC00206C
S3158780201005B030BD0B48DEE70B48DCE7CB178587F5
S3158780202083DE1B43E21785870A1885874E1885873F
S31587802030ED1785871218858775188587821885870E
S315878020408B188587301885875718858710B5054BF0
S315878020505C6901F081F9C4F38221013141F0FAEE9E
S3158780206010BD00BF00400C02704710B50B204C4650
S3158780207001F0ACFEC4F8B000002010BD10B5114A3F
S315878020801368BFF35F8F9169BFF35F8F0E4CC3F37E
S31587802090026202F10C00C3F30252A25C0244C3F3CC
S315878020A00140C3F380731844C1F340130749CB5C5F
S315878020B013441844202816BF01234FF0704003FA33
S315878020C000F010BD00001B02619084875783848748
S315878020D070B505460E461446013C03D1B4FA84F0A2
S315878020E0400970BD2B68BFF35F8F36EA0303F5D04F
S315878020F001203DF093FDEFE770B505460E46144601
S31587802100013C03D1B4FA84F0400970BD2B68BFF3D4
S315878021105F8F3342F6D001203DF080FDF0E70000E7
S3158780212070B50446BFF35F8F4FF00045164A294640
S315878021308560FFF7E1FF08B1012070BDBFF35F8F30
S315878021404FF08046A660BFF35F8F0F4A31462046A1
S315878021506560FFF7BDFF0028EED1BFF35F8F0A4A20
S3158780216029462046A560FFF7C7FF0028E4D1BFF33D
S315878021705F8F054A31462046A660FFF7BDFF003848
S3158780218018BF0120D9E700BF40420F00D9F8002049
S315878021906946926CA1F580418A420BD8D9F800208E
S315878021A0D9F80030926CDB6C1A44914202D2521A6B
S315878021B03CF0ABBE70470000054B5B6ADB0706D5F4
S315878021C0BFF35F8F4FF07042024BC3F80821704789
S315878021D000400E0200001D0208B5FEF78AFD10EE4C
S315878021E0103FC3F30313072B0BD111EE303F5A06EB
S315878021F007D443F0400301EE303FBFF34F8FBFF3E1
S315878022006F8FFFF738FC1E2200200649FFF7EEFB0B
S31587802210BDE808401E224FF400314FF41000FFF7C7
S31587802220E5BB00BFFFFF0F0008B5BFF35F8F4FF099
S3158780223077332F490B60BFF35F8F4B60BFF35F8F19
S315878022402C4A1360BFF35F8F5360BFF35F8F002382
S315878022500B64BFF35F8F4B64BFF35F8F8B64BFF372
S315878022605F8FCB64BFF35F8F0B65BFF35F8F13641D
S31587802270BFF35F8F5364BFF35F8F9364BFF35F8FC3
S31587802280D364BFF35F8F136500F030FAC0F30830ED
S31587802290652819D1BFF35F8F4FF07732164B1A6057
S315878022A0BFF35F8F5A60BFF35F8F00221A64BFF3D5
S315878022B05F8F5A64BFF35F8F9A64BFF35F8FDA64E9
S315878022C0BFF35F8F1A6508BD00F010FAC0F3083038
S315878022D06B28DFD000F00AFAC0F308306228D9D09D
S315878022E000F004FA000B00F0F0007028EBD1D1E7FC
S315878022F000C0070200C0170200C0270210B500F091
S31587802300F5F9C0F3083064280BD000F0EFF9C0F3F5
S315878023100830652805D000F0E9F9C0F308306B28C6
S3158780232015D1194CBFF35F8F0023184A1381BFF3EA
S315878023305F8F4FF00372138100F0D8F9C0F30830AE
S31587802340622806D1BFF35F8F0023238110BD104C8F
S31587802350E8E700F0CBF9C0F308306428F2D000F0C4
S31587802360C5F9C0F308306528ECD000F0BFF9C0F313
S3158780237008306B28E6D000F0B9F9000B00F0F00042
S315878023807028E3D1DEE700BF00401E0200C00B0243
S3158780239000802802044A1368BFF35F8F23F0010306
S315878023A0BFF35F8F1360704700800D02BFF35F8F27
S315878023B0074A1064536CBFF35F8F28B143F080530D
S315878023C0BFF35F8F5364704723F08053F8E700BF6E
S315878023D000800D0270B50C46064600F087F9030B20
S315878023E003F0F003602B0CBF4FF4C4654FF4C865C8
S315878023F000F07CF9030B03F0F00305F10675702B6B
S3158780240005F5703513D1012E47D12B6ABFF35F8FC0
S315878024101A0E22701A0C62701A0AA270E3702B69E0
S31587802420BFF35F8F1A0E22711B0C637170BD00F02C
S315878024305DF9C0F308306228E5D000F057F9C0F31C
S3158780244008306428DFD000F051F9C0F3083065285A
S31587802450D9D000F04BF9C0F308306B28D3D000F081
S3158780246045F940F28513C0F308309842CBD000F007
S315878024703DF9C0F30830B0F5C47FC4D000F036F993
S3158780248040F28713C0F308309842BCD000F02EF90B
S31587802490C0F30830B0F5C37FB5D02B69BFF35F8FA4
S315878024A01A0A227063702B68BFF35F8F1A0EA27029
S315878024B01A0CE2701A0A2271B7E700000C4B0EEEEF
S315878024C0103FBFF35F8F0B4A13621368BFF35F8F2B
S315878024D023F4407343F4817343F00103BFF35F8F23
S315878024E000201360C9F8BC00C9F8B800704700BFE0
S315878024F000127A0000C01D0253EC0E2FC9F8BC204B
S3158780250010461946C9F8B830704737B50446FFF77D
S31587802510F3FF0A461EEE101F4FF47A75A0FB05035C
S3158780252005FB0233CDE9000333B941F094EC009083
S315878025300098001B03B030BD68463CF04DFBF7E73B
S31587802540F8B51EEE101F0026194F1A4AE0FB017652
S31587802550A7FB0231A6FB0220511840F1000200201A
S31587802560154D8446A7FB0573C9195A4128BF012093
S31587802570A6FB05565CEA0003044618BF0024674617
S3158780258018BF0127551946F10006FFF7B5FF63196E
S3158780259047EB06069B0C43EA86331C1841F10005F8
S315878025A0FFF7AAFFA04271EB0503F9D3F8BD00BFF9
S315878025B03F420F00DB34B6D782DE1B431EEE100FF9
S315878025C070470000012A2DE9F04114461E4604DC37
S315878025D04FF0FF342046BDE8F081DFF86C805F6876
S315878025E0D8F800503DB1286828B139463DF0ABF917
S315878025F028B30835F7E7D8F80450002DE8D028683F
S315878026000028E5D039463DF09EF9C0B10835F6E712
S315878026100E49B0683DF097F904460028D8D1686896
S31587802620FFF7C4FE002CD5D06C68002CD2D000234F
S315878026301A4619461846FFF789F90024CAE7032CF4
S31587802640E6D00124EBE700BF80C3868742A78487CD
S315878026502DE9F04D044600274FF07C0ADFF848B015
S315878026600BF108085BF8045B15B12868083558B9FB
S31587802670C345F7D124B10B220C49601EFEF780FC37
S3158780268007F10A00BDE8F08D3DF086F9064644B12C
S31587802690024655F8081C20463444FEF771FC04F838
S315878026A001AB01363744E0E780C38687C591848747
S315878026B038B50B4D0446286918B10FF083FE002381
S315878026C02B61084B084A1C605A600020FFF7C0FFC1
S315878026D00FF02CFF044610B1FFF7BAFF2C6138BD87
S315878026E000A7868780C38687145D8487244AD2F825
S315878026F08002BFF35F8FC0F30743602B3ED0D2F84B
S315878027006002BFF35F8F4FF420035A68BFF35F8FF2
S31587802710C0F30743612B02F003021ED1002A08BF4C
S31587802720662310F47F4FC0F3072108D0632B01D02F
S315878027306A2B04D1012A14BF692368230139632B45
S31587802740C0B201D06A2B02D1052808BF0320013188
S3158780275000EB011040EA03307047632B03D1012ACF
S3158780276008BF6A23DDE7652BDBD10649C969BFF3D5
S315878027705F8F11F0400F18BF6B23D2E70022D0E717
S3158780278000800C0200800D0210B5344BD3F840448C
S31587802790BFF35F8FFFF7AAFFC0F308306428C4F3BF
S315878027A0014407D1012C01D12D4810BD022C51D06F
S315878027B00020FAE7FFF79AFFC0F30830652805D12E
S315878027C0012CF1D0022C27D12648EEE7FFF78EFF22
S315878027D0C0F308306B28F3D0022C3DD0032C1FD052
S315878027E0012CF1D1FFF782FFC0F30830632811D01F
S315878027F0FFF77CFFC0F308306A280BD0FFF776FF98
S31587802800C0F30830692805D0FFF770FFC0F308301A
S315878028106828D9D11448C8E7032CC9D11348C4E797
S31587802820FFF764FFC0F30830632811D0FFF75EFF98
S31587802830C0F308306A280BD0FFF758FFC0F30830FB
S31587802840692805D0FFF752FFC0F30830682803D17F
S315878028500748AAE70748A8E70748A6E700C01B02F4
S3158780286000A4781F00F6342F007DC83200E9A4358E
S31587802870008C8647001E7C2900C15D3B104A034633
S31587802880D2F88004BFF35F8FC0F381103BB131B13B
S31587802890032805D16FF027021A607D230B60704766
S315878028A0022804D16FF027021A606923F6E7012888
S315878028B002D16FF01302F7E700221A605F23EDE7F4
S315878028C000C01B0208B5FFF711FFC0F30733662BDD
S315878028D004D1C0F30B0040F4C22008BD6A2B04BF25
S315878028E0C0F30B0040F4C620F7E70000F8B5254E05
S315878028F007460C46D6F84051BFF35F8FFFF7F6FE43
S31587802900C0F30830672801D10020F8BDB4F5357F3C
S3158780291030D940F2AA539C422ED81B4BA4F52F74EC
S31587802920A4FB0343DB08D6F87021BFF35F8F22F0C1
S315878029307C52BFF35F8F022FC6F870211ED81F2166
S31587802940124AD25D914001EA0500D0408342DBD0AE
S3158780295025EA010503FA02F21543BFF35F8F181A3A
S315878029600028B8BF4042C6F8405100EB40003DF092
S3158780297055F9C9E70023D6E71F23D4E76FF01500FB
S31587802980C3E700BF00800C021F85EB51C57684871D
S31587802990D9F80400C00F704708B5084B5B68BFF34A
S315878029A05F8FC3F38112FFF7F3FF20B9012A02D124
S315878029B0C3F3C12008BD4FF0FF30FBE700800D02CF
S315878029C010B5C14B1B68BFF35F8FDC025FBF4A467A
S315878029D0536843F000435360FFF788FEC0F308309F
S315878029E060282BD0FFF782FEC0F30830622825D077
S315878029F0FFF77CFEC0F3083064281FD0FFF776FE8A
S31587802A00C0F30830652819D0FFF770FEC0F3083009
S31587802A106B2813D0FFF76AFEC0F3083067280DD07E
S31587802A20AA4A5368BFF35F8FD80307D523F48033C9
S31587802A30BFF35F8F002053601EF010FAFFF7F4FB19
S31587802A40A34B5C68BFF35F8FFFF750FEC0F30830F8
S31587802A50622840F00B8124F48034BFF35F8F9C4BD0
S31587802A605C6003F58043D3F85021BFF35F8F1106EF
S31587802A70F9D5BFF35F8F0822C3F85421FFF736FE57
S31587802A80C0F30830652840F01781924BD3F880349D
S31587802A90BFF35F8F1B0903F07003BFF35F8F8E4A87
S31587802AA0C2F85431FFF722FEC0F30830642823D05A
S31587802AB0FFF71CFEC0F3083065281DD0FFF716FE8A
S31587802AC0C0F308306B2817D0002001F07FF9834B3D
S31587802AD0984211D100F040FC7D494A69BFF35F8FE8
S31587802AE07F4B22F4E052A0FB03031B0D013B42EA96
S31587802AF08323BFF35F8F4B61FFF7F8FDC0F3083001
S31587802B0064280CD1FFF7F2FDC0B2102800F0EE8062
S31587802B10BFF35F8F4BF6A0026C4BC3F89C22FFF7FF
S31587802B20E5FDC0F30830652840F0EC806D4A136870
S31587802B30BFF35F8F43F00303BFF35F8F1360FFF7A6
S31587802B40D5FDC0F30830602808D1614AD369BFF3C1
S31587802B505F8F43F04003BFF35F8FD361FFF7CEFB71
S31587802B60FFF7C4FDC0F30830622808D1584A536AF4
S31587802B70BFF35F8F43F04003BFF35F8F5362FFF7E7
S31587802B80B5FDC0F30830602827D0FFF7AFFDC0F3C7
S31587802B900830642821D0FFF7A9FDC0F3083065285F
S31587802BA01BD0FFF7A3FDC0F308306B2815D0FFF73E
S31587802BB09DFDC0F3083067280FD0FFF797FDC0F3D8
S31587802BC00830622800F0A680404A5368BFF35F8F3B
S31587802BD043F48023BFF35F8F5360FFF787FDC0F38E
S31587802BE0083069283CD0FFF781FDC0F30830682814
S31587802BF036D0FFF77BFDC0F30830642830D0FFF7E7
S31587802C0075FDC0F3083065282AD0FFF76FFDC0F3BE
S31587802C1008306B2824D0FFF769FDC0F30830672812
S31587802C201ED0314BD3F86022BFF35F8F42F001020B
S31587802C30BFF35F8FC3F860221A68BFF35F8F42F056
S31587802C400102BFF35F8F1A601A68BFF35F8FD2075F
S31587802C50FAD4BFF35F8F4FF478521F4BC3F848215E
S31587802C60FFF798FBFFF7A8FA002010BDFFF73EFD18
S31587802C70C0F3083064283FF4EEAEFFF737FDC0F324
S31587802C80083065283FF4E7AEFFF730FDC0F308309C
S31587802C906B283FF4E0AEFFF729FDC0F30830602844
S31587802CA03FF4D9AEFFF722FDC0F3083067283FF49B
S31587802CB0D2AE24F44034D0E6FFF718FDC0F308304F
S31587802CC06B287FF4EFAEE0E600900C0200000E02E0
S31587802CD000400C0200C01B0200800C02007B9A1702
S31587802CE0239A080200000B0200C00D020E4A136960
S31587802CF0BFF35F8F23F4A05343F48063BFF35F8F63
S31587802D0013610CE7FFF7F2FCC0F308306B287FF47A
S31587802D1016AF0BE7054A136BBFF35F8F43F080438C
S31587802D20BFF35F8F136358E700000B0200400E02E4
S31587802D307047000008B5FFF72FFE002806DABDE842
S31587802D40084001220A21034809F06ABDBDE8084088
S31587802D50FFF7EEBFE20785870020704708B5FFF744
S31587802D601BFE002803DBBDE80840FFF7F5BF002080
S31587802D7008BD08B5FFF7BAFCC0F30830672804D0CA
S31587802D8040F297410120FFF7B1FD002008BD000082
S31587802D90034BD3F810240260D3F8203443607047FE
S31587802DA000C01B02114B5B68BFF35F8FC3F3C00004
S31587802DB0C3F3C122C3F303130F2B13D8DFE803F0C2
S31587802DC0151214080B0B0D0D101010101010101003
S31587802DD0C0F105007047901D704702F10A00704761
S31587802DE00E207047122070470320704700800D029F
S31587802DF00388BFF35F8F03889BB2BFF35F8F43F0F0
S31587802E000903BFF35F8F03807047704708B5FFF765
S31587802E106DFCC0F3083062283FD0FFF767FCC0F3AC
S31587802E200830642839D0FFF761FCC0F308306528FD
S31587802E3033D0FFF75BFCC0F308306B282DD0FFF7C4
S31587802E4055FCC0F30830672827D01E4B9A69BFF395
S31587802E505F8FC2F34153022BC2F3814223D0022A6A
S31587802E6026D0012B1DD0012A1BD0032B164B01D0D0
S31587802E70032A23D1BFF35F8F4FF08031134AC2F87D
S31587802E80F410BFF35F8FC2F80431BFF35F8FC2F848
S31587802E90F810BFF35F8FC2F8083108BD4FF08023E3
S31587802EA0E6E7094BE6E7012AF8D14FF08023E1E789
S31587802EB0012BFAD0032BF8D04FF0802343F40003FD
S31587802EC0D8E700BF00400C028080008000800C021B
S31587802ED010B5054B1B685C69FFF7B8F8C4F3012109
S31587802EE0013140F0B8EF10BDF0B1858710B51F4B23
S31587802EF01B68DC69FFF7FAFBC0F30830672803D1C4
S31587802F0063062BD51A4830E0FFF7F0FBC0F308300D
S31587802F106028F5D0FFF7EAFBC0F308306228EFD048
S31587802F20FFF7E4FBC0F308306928E9D0FFF7DEFBBB
S31587802F30C0F308306828E3D0FFF7D8FBC0F30830A2
S31587802F406428DDD0FFF7D2FBC0F308306528D7D059
S31587802F50FFF7CCFBC0F308306B28D1D0FFF7B8FFDB
S31587802F6004F03F01013140F076EF10BDF0B18587DF
S31587802F7000366E0138B5BFF35F8F2C4C2C4D236896
S31587802F80022A03F58043C3F8A85036D0042A39D05D
S31587802F90012A3AD100F07F0040F48010BFF35F8F1B
S31587802FA0236803F58043C3F8A400BFF35F8F236844
S31587802FB003F58043C3F8B010BFF35F8F23681D4A3C
S31587802FC003F580430020C3F8C020FFF79EFA00F1FF
S31587802FD00A05236803F58043D3F8A030BFF35F8F54
S31587802FE0002B18DABFF35F8F4FF4005223680020D7
S31587802FF003F58043C3F8A4200CE000F07F0040F4FB
S315878030000020CBE700F07F00C8E70B480EF08BFFE8
S315878030106FF0150038BD0020FFF777FAA842D8D31E
S3158780302006480EF080FF6FF03D00F3E7F0B18587A5
S315878030307F10190040420F00B6D98487C7D9848705
S3158780304008B5084B1B68196903F580431868064BD2
S3158780305000F07F00584301F007010131400840F0B6
S31587803060FAEE08BDF0B1858700366E01022837B53E
S315878030700C461D4D2DD0FFF739FBC0F308306428E9
S3158780308007D0FFF733FBC0F30830652801D0FFF7F9
S315878030902DFB2B6803F58043D3F800211B6B5B00E0
S315878030A003F00203114914334B43E10012240025B0
S315878030B0A3FB043004FB0500CDE900303F238B401A
S315878030C01340684623FA01F13BF086FD009803B0EA
S315878030D030BD2B6803F58043D3F8F0201B695B00EE
S315878030E003F00603DEE700BFF0B1858700366E0101
S315878030F070B5244B06461B68DC695D6AFFF7F6FA6E
S31587803100C0F30830642803D1012E0DD9002070BD05
S31587803110FFF7ECFAC0F308306528F5D0FFF7E6FAB3
S31587803120C0F308306B28EFD0FFF7E0FAC0F308309A
S31587803130672808D1032EE9D0022E08D1C5F3C24568
S3158780314004F480240DE0022EF8D0032E12D0012EAF
S3158780315019BFC5F3C22504F48034C5F3024504F448
S31587803160003464B100210120FFF780FF691C40F09D
S3158780317072EECCE7C5F3825504F40024F1E7022189
S31587803180F1E700BFF0B1858738B5274B27491A689D
S31587803190274C02F580431B69556A5B0003F006035B
S315878031A014334B43A3FB0434FFF7A0FAC0F30830EC
S315878031B060284FEA94040BD11C4B15F0400F18BF3B
S315878031C01C4605F03F012046013140F044EE38BD6C
S315878031D0FFF78CFAC0F308306228EDD0FFF786FABE
S315878031E0C0F308306928E7D0FFF780FAC0F3083044
S315878031F06828E1D0FFF77AFAC0F308306428DBD0F5
S31587803200FFF774FAC0F308306728D5D0FFF76EFAD0
S31587803210C0F308306528CFD0FFF768FAC0F3083047
S315878032206B28CED1C8E700BFF0B1858700366E019F
S31587803230ABAAAAAA054B1A68136F18B143F44053F1
S315878032401367704723F44053FAE700BFF0B1858749
S31587803250064B1A68D2F8803020B143F00303C2F850
S315878032608030704723F00303F9E700BFF0B1858785
S3158780327038B50446FFF73AFAC0F308306528104D0B
S3158780328008D14FF440522B6868331968ACB10A432A
S315878032901A6038BDFFF72AFAC0F308306B28F0D05A
S315878032A0FFF724FA2B68C0F3083064280BBF3022D7
S315878032B04FF4406274336C33E7E721EA0202E7E72B
S315878032C0F0B18587032938B5044602D96FF0150092
S315878032D038BD0ED003231F4A4900126806318B40BA
S315878032E0116F18B1194311670020F1E721EA0301AD
S315878032F0F9E7FFF7FBF9C0F308306728E6D0FFF7D1
S31587803300F5F9C0F308306228124D08D14FF0407125
S315878033102B6880331A68CCB10A431A60E4E7FFF7D3
S31587803320E5F9C0F308306428F0D0FFF7DFF9C0F3FA
S3158780333008306528EAD0FFF7D9F9C0F308306B28BB
S31587803340E4D02B684FF440716C33E3E722EA0102BD
S31587803350E3E700BFF0B1858710B51E4B1B685A69B6
S3158780336012F0007419D0C2F3C2649A6912F4405F6E
S31587803370C2F3013107D00329174808BF0020611C93
S3158780338040F068ED10BD03F580431869400000F072
S315878033900600114B14305843F1E79869C0F3814092
S315878033A002280ED003280FD0012806D003F5804344
S315878033B0186B400000F00200EBE70221FFF756FE0C
S315878033C0DDE721460120F9E702210120FFF74EFE3E
S315878033D04008D4E7F0B1858700366E0110B50B4B70
S315878033E01B685B695A06C3F302440BD51B0647BF26
S315878033F00121022002210120FFF738FE611C40F05F
S315878034002AED10BDFFF7A8FFF8E700BFF0B18587E3
S3158780341010B5114B1B68DC69C4F341710229C4F36B
S31587803420C25414D0032911D0012905D0FFF7D6FFBE
S31587803430611C40F010ED10BD03F580431869074B7A
S31587803440400000F0060014305843F1E70021012040
S31587803450FFF70CFEECE700BFF0B1858700366E017B
S315878034602DE9F0415A4F3B68D3F818805E69FFF79C
S315878034703DF9C0F30830622818D116F08064C6F308
S31587803480C2054AD0FFF732F9C0F30833602B51481B
S3158780349006F0070408F480122CD1B2BB3B6803F58B
S315878034A080431B695B0003F006032CE0FFF71EF958
S315878034B0C0F308306428E0D0FFF718F9C0F30830E6
S315878034C06528DAD0FFF712F9C0F308306B28D4D095
S315878034D0FFF70CF9C0F308306028CED0FFF706F9DE
S315878034E0C0F308306728C8D0FFF736FFC6F3C241D6
S315878034F001310EE03B6803F58043002AD1D01B6BF0
S315878035005B0003F0020314335843691C40F0A2EC36
S31587803510611C40F0A0ECBDE8F081C8F341500228D9
S3158780352011D0032812D0012809D03B6803F5804340
S31587803530186B284B400000F002001430E4E7022124
S31587803540FFF794FDE1E721460120F9E7FFF7CEF8FB
S31587803550C0F30830602805D102210120FFF786FD58
S315878035604008D2E73A6802F58042D2F87031D2F8BD
S3158780357070119B0D03F00203C1F3C0310B43012BFE
S3158780358021D0032B14BF01270427136F13F4005010
S3158780359015D013F4803018D1C3F3C146032ED2F8E1
S315878035A080C003F07F08D2F8901008D0604640F03C
S315878035B052EC084B40445843C6F10206F0403946E0
S315878035C040F048ECA1E70227DFE70248F7E700BF2C
S315878035D0F0B1858700366E0170B5564D564E2B688D
S315878035E0564C03F580431968554801F07F0171432E
S315878035F04908A1FB0431890C3DF0C5F92B685148F0
S3158780360003F58043196B490001F002011431714338
S31587803610A1FB0431890C3DF0B6F92B684A4803F53E
S3158780362080431969490001F0060114317143A1FB72
S315878036300431890C3DF0A7F92B68444803F580430C
S31587803640D3F8E03003F00301C3F340030B444049CA
S3158780365003FB0111A1FB0441890C3DF094F93D4898
S315878036603DF091F9FFF7ECFC3B4CA0FB04013B480E
S3158780367089093DF088F9FFF72BFCA0FB04013848C0
S3158780368089093DF080F9FFF77FFDA0FB0401354866
S3158780369089093DF078F9FEF7D9FCA0FB0401324809
S315878036A089093DF070F9FFF799FEA0FB04012F4841
S315878036B089093DF068F9FFF7D3FEA0FB04012C4802
S315878036C089093DF060F90020FFF712FDA0FB040110
S315878036D0284889093DF057F90120FFF709FDA0FBA6
S315878036E00401254889093DF04EF90220FFF700FD40
S315878036F0A0FB0401214889093DF045F90320FFF79E
S31587803700F7FCA0FB04011E4889093DF03CF9FFF7C9
S315878037107FFEA0FB04011B4889093DF034F9FFF73A
S31587803720E5FBA0FB0401184889093DF02CF90020A8
S3158780373070BD00BFF0B1858700366E0183DE1B437F
S3158780374086C784879AC78487AEC78487C2C7848794
S3158780375040787D0146158587D34D6210D6C7848785
S31587803760EAC78487FEC7848712C8848726C88487E2
S315878037703AC884874EC8848762C8848776C8848790
S315878037808AC884879EC88487B2C8848738B50446A2
S315878037900D46FEF7ABFFC0F3083062282FD1FEF7C0
S315878037A0A5FFC0F3083067280DD1794BA34200F077
S315878037B0E880784B9C4200F0E78077480EF0B3FB31
S315878037C06FF0150038BDFEF791FFC0F3083060288B
S315878037D0EBD0FEF78BFFC0F3083064280BD0FEF75B
S315878037E085FFC0F30830652805D0FEF77FFFC0F3D5
S315878037F008306B2801D1694BD8E7694BD6E7FEF746
S3158780380075FFC0F3083064281FD1FEF76FFFC0F3BA
S315878038100830672833D0FEF769FFC0F30830602801
S315878038202DD0FEF763FFC0F3083064280BD0FEF7F0
S315878038305DFFC0F30830652805D0FEF757FFC0F3D4
S3158780384008306B2853D1554B1AE0FEF74FFFC0F3EC
S3158780385008306528D9D0FEF749FFC0F308306B2832
S31587803860D3D0FEF743FFC0F308306728CDD0FEF765
S315878038703DFFC0F3083060283BD00020A2E7444B49
S31587803880A3429AD14FF440624FF46060454B1968E2
S31587803890496FBFF35F8F21EA0201BFF35F8F1C6891
S315878038A06167216FBFF35F8F21F04051BFF35F8FD1
S315878038B01C682167002DE0D0A16BBFF35F8F21EA5B
S315878038C00001BFF35F8F18688163416FBFF35F8F96
S315878038D00A43BFF35F8F19684A670A6FBFF35F8FA3
S315878038E042F04052BFF35F8F1B681A67C5E72C4B40
S315878038F0C6E7FEF7FBFEC0F30830672825D1244B41
S31587803900A3427FF45AAF274A13685B6FBFF35F8FF3
S3158780391023F47073BFF35F8F11684B67002DACD02C
S31587803920CB6BBFF35F8F23F4404343F48043BFF36E
S315878039305F8F1168CB634B6FBFF35F8F43F4707371
S31587803940BFF35F8F1268536797E7FEF7CFFEC0F3A3
S3158780395008306028D3D0FEF7C9FEC0F308306428C4
S315878039600BD0FEF7C3FEC0F30830652805D0FEF777
S31587803970BDFEC0F308306B2801D1084BC0E7084BE2
S31587803980BEE74FF44C627FE74FF4707207207DE77E
S3158780399000800F02004022026ED9848700801C0235
S315878039A000002202F0B185872DE9F84507460D4646
S315878039B0FEF79CFEC0F3083062283AD1FEF796FE62
S315878039C0C0F30830602854D1FEF790FEC0F30830E4
S315878039D0622806D1944B1B689B6BBFF35F8F5B070F
S315878039E045D1924BB3EB851F71D24FF001080124E5
S315878039F0AC46264621460020DFF834A2634601225C
S31587803A00A3F51E2EAEF5507ED64505D808B18342DE
S31587803A1002D214460E4618460132092A6344EFD1EC
S31587803A2001310929AC44E9D1002865D129468148E5
S31587803A305EE0FEF75BFEC0F308306428BED0FEF7F3
S31587803A4055FEC0F308306528B8D0FEF74FFEC0F321
S31587803A5008306B28B2D0FEF749FEC0F3083060285D
S31587803A60ACD0FEF743FEC0F308306728A6D0BDE802
S31587803A70F885FEF73BFEC0F3083067280BD16E4B7F
S31587803A80BB42A1D1684B1B689B6BBFF35F8F13F4D7
S31587803A90606F99D0EBE7FEF729FEC0F30830602880
S31587803AA0EDD0FEF723FEC0F30830642801D1634B3F
S31587803AB0E6E7FEF71BFEC0F308306528F7D0FEF7EA
S31587803AC015FEC0F308306B28F1D05D4BD8E7584B8D
S31587803AD0B3EBC51F07D3B3EB052F07D24FF0040887
S31587803AE008FB05F583E74FF00208F9E7294655482D
S31587803AF0BDE8F8453CF047BF534D45F6C051A0FB1E
S31587803B00053A40F068EA514B4FEA5A2A5943A1FB56
S31587803B100515FEF7EBFDC0F3083067284FEA552574
S31587803B202DD1454BBB4258D1294642465046FFF751
S31587803B3021FA014600289AD13846FFF727FEFEF7F5
S31587803B40D5FDC0F308306028374B06F1FF3104F185
S31587803B50FF3430D01A68966B26F47C3646EA01366F
S31587803B6046F480369663936923F0607343EAC45438
S31587803B7094613846BDE8F8450121FFF707BEFEF711
S31587803B80B5FDC0F308306028CBD0FEF7AFFDC0F314
S31587803B900830642801D1294BC4E7FEF7A7FDC0F317
S31587803BA008306528F7D0FEF7A1FDC0F308306B286B
S31587803BB0F1D0234BB6E71B6824059E6B84F4C0043B
S31587803BC026F4FC7646EAC10646F080069E63DA6965
S31587803BD022F4E0021443DC61CBE7FEF787FDC0F36E
S31587803BE0083062287FF443AF294642465046FFF71E
S31587803BF0C1F9014600287FF43AAF3846FFF7C6FDFC
S31587803C00094B721E1968013C8B6B23F4FC7646EA56
S31587803C10C20646F080068E63CB6923F4E00343EAC7
S31587803C200454CC61A5E700BFF0B185873FE30900DF
S31587803C3040E30900960D858700800F0200801C026D
S31587803C40000022027C0D8587F119760540420F0098
S31587803C5010B101281AD070471A490B685A6F22F417
S31587803C6040425A67DB69BFF35F8F23F0E05323F4C3
S31587803C70607343F0806343F48073BFF35F8F0A6812
S31587803C80D361536F43F44043536770470D490A683E
S31587803C90936F23F0405323F440639367D36ABFF3CC
S31587803CA05F8F23F0FF6323F4F02343F4B023BFF3BE
S31587803CB05F8F0A68D362936F43F0405343F44063C0
S31587803CC093677047F0B18587032970B506460C469A
S31587803CD002D96FF0150070BD274BD3F8E050BFF33C
S31587803CE05F8F98B925F003012143CB0401D400293E
S31587803CF032DB21F48051BFF35F8F1F4A1F4BC2F897
S31587803D00E010013B22D16FF06D00E4E70128E0D116
S31587803D10FEF7ECFCC0F30830622804D125F00C014D
S31587803D2041EA8401E1E7FEF7E1FCC0F308306428C5
S31587803D30F4D0FEF7DBFCC0F308306528EED0FEF7BB
S31587803D40D5FCC0F308306B28E8D0C2E7D2F8E0000C
S31587803D50BFF35F8F0028D4DA56B941F4005121F436
S31587803D608031BFF35F8F044B0020C3F8E010B2E742
S31587803D7041F48011F3E700BF00800C02A186010021
S31587803D80FFF702BAFFF7A4B80F4B1A69BFF35F8FA5
S31587803D90002A18DBBFF35F8F4FF480525A61BFF3D7
S31587803DA05F8F8022C3F878211A69BFF35F8F002AD5
S31587803DB0FADABFF35F8F4FF480329A61BFF35F8FF2
S31587803DC04FF400525A61704700800C02014670B5E5
S31587803DD0102800F28480DFE800F0090D1115191D7F
S31587803DE0216B6F73777C7E8011821900BDE8704066
S31587803DF0FFF726B9BDE87040FFF7AEBABDE87040D9
S31587803E00FEF724B9BDE87040FFF762B8BDE8704019
S31587803E10FFF76CB8BDE87040FFF7B6B9324D2B68AF
S31587803E209E6BFEF763FCC0F30830C6F3C5446928EA
S31587803E3004F1010406D173032ED521462B4840F021
S31587803E400AE870BDFEF752FCC0F308306828F2D0C6
S31587803E50FEF74CFCC0F308306028ECD0FEF746FCB2
S31587803E60C0F308306228E6D0FEF740FCC0F30830FE
S31587803E706428E0D0FEF73AFCC0F308306728DAD0AA
S31587803E80FEF734FCC0F308306528D4D0FEF72EFCC5
S31587803E90C0F308306B28CED02B68144803F580434F
S31587803EA01B69E1005B0003F0060314335843C6E7BA
S31587803EB0BDE87040FFF792BABDE87040FFF7A8BAB1
S31587803EC0BDE87040FFF7CCBA0020BDE87040FFF7A9
S31587803ED00FB90120F9E70220F7E70320F5E70448C1
S31587803EE03CF051FD0020ACE7F0B1858700366E0146
S31587803EF0F60C858730B5002214240E4B04FB02F11D
S31587803F00CD58854210D10B449A6802F1067202F524
S31587803F1070321268BFF35F8FD96801238B40134253
S31587803F2014BF0120002030BD0132722AE6D10020DD
S31587803F30F9E700BFF45084872DE9F34D054672264D
S31587803F40234CDFF890B0DFF89080A36803F106737F
S31587803F5003F570331A68BFF35F8F0123E1688B405F
S31587803F60134224D0D4F804A02846514639F004FC5D
S31587803F70071E1CDB58463BF00FFD013000905B46E1
S31587803F8042463946284639F01FF8D8B1C31C06D130
S31587803F904FF4007128460BF04BFB0028EAD038F0A7
S31587803FA051FE4246034651460C483CF0ECFC013EA6
S31587803FB004F11404C9D10A483CF0E5FC304602B0C6
S31587803FC0BDE8F08D4246514606483CF0DCFCEEE77C
S31587803FD0F450848739F3848742F3848749F38487C7
S31587803FE089F3848772F384870C4B984214D009D8D7
S31587803FF0A3F5004398420AD003F58043984209D0B7
S3158780400000207047064B9842FAD10C2000E00920A1
S31587804010FFF770BF0A20FBE70B20F9E700801902BC
S3158780402000C01902A0F10670A0F58040400A1730BB
S31587804030FFF760BF002070470C4B984214D009D891
S31587804040A3F5004398420AD003F58043984209D066
S3158780405000207047064B9842FAD1302000E02D2009
S31587804060FFF748BF2E20FBE72F20F9E700801A024B
S3158780407000801F02064B984206D003F55423984248
S3158780408004D11420FFF736BF1520FBE70020704741
S3158780409000400B027047000030B591B0FEF74AFEAC
S315878040A00446124808F052FBE8B111493BF04BFCB5
S315878040B00546C0B921460F4808F018FA2046FFF70B
S315878040C0E9FF0D49024608A83CF050FC08A90B4831
S315878040D008F0EEF90A49224668463CF047FC2946AD
S315878040E0684610F0E7FA11B030BD00BFA487848791
S315878040F0B2878487E2078587B6878487D2878487CE
S31587804100DA87848710B54C46FDF7B8FF2064002090
S3158780411010BD37B50446006850B1C36A43B148F2CB
S31587804120901300934FF0FF321F23056BA16BA8472F
S3158780413063689B690BB120469847002003B030BDE2
S3158780414008B502210248FDF743FD002008BD00BF60
S31587804150C843848710B5164AD9F80030154C5A64F7
S315878041606368152023F4083343F400336360FFF7CD
S31587804170C1FE28B9636823F4882343F48023636068
S3158780418001210020FFF7A0FD30B91520FFF7B2FE89
S3158780419038B10120FFF76CF80020FFF759FD002022
S315878041A010BD01210846FFF78FFD0028F1D0F3E780
S315878041B00001008000400E0208B53348FEF778FA82
S315878041C03249334808F074F93249334808F070F930
S315878041D03249334808F06CF9FEF788FAC0F308301D
S315878041E06B2807D12F492C4808F062F92E492F482A
S315878041F008F05EF9FEF77AFAC0F30830672826D189
S315878042002B480121FFF7C2FA01212A48FDF7E0FCF6
S31587804210294989201DF065F9002189201DF0B0F98B
S315878042204FF4FA703BF0FAFC012189201DF0A8F93A
S31587804230224908201DF055F9012108201DF0A0F993
S31587804240FFF72AFF1E48FEF7D3FD002008BDFEF73D
S315878042504DFAC0F308306028D2D0FEF747FAC0F30C
S31587804260083064280BD0FEF741FAC0F308306528FA
S3158780427005D0FEF73BFAC0F308306B2801D1114889
S31587804280BFE71148BDE700BF74468487D2F8848725
S3158780429054878487588784875D87848769258587B8
S315878042A068878487728784877A87848784878487E1
S315878042B000800F0290438487908784879A87848734
S315878042C000C00B0200801C020000220208B502484B
S315878042D00DF029FE002008BDCA8E848703460846CE
S315878042E011461847012A70B516461C4618DD1022D6
S315878042F054F8040F00213CF0CFFB054601460A4857
S315878043003CF041FB2246711E2846FFF7E7FF041ED5
S315878043100146064818BF01243CF035FB204670BD10
S315878043204FF0FF34FAE700BF6EB8848796B88487E4
S315878043302DE9F04502F1FF38B8F1000F06460F46A2
S3158780434015461C4687B003F1040A30DD102258686B
S3158780435005A93CF0A1FB059B1A7842B33A2A26D059
S31587804360232A24D009221749606810F03AFAAA1EB0
S3158780437004F1080360B1C4681349012C0DD0E007A6
S315878043800CD4D1F88C00844208DC10483CF0FBFAC8
S315878043904FF0FF3007B0BDE8F085072400200191F4
S315878043A002900094394630460AF094F8F2E7012362
S315878043B00293054B4246019340F21F7300935346FF
S315878043C0F0E700BF80B5858774CD868748A88487C0
S315878043D010B50C46034808F0B9F92146BDE8104068
S315878043E010F068B93EE2848738B5044601461D4891
S315878043F03CF0C9FA20460EF0F3FE0128054606D022
S31587804400032827D018480DF08EFD012509E0174827
S315878044100DF089FD2268164B9A4204D015480DF017
S3158780442082FD284638BD20460EF010FD08B9124811
S31587804430F5E720460EF03EFE10480DF074FD2046C7
S315878044400EF019FD08B90E48E9E70E480DF06BFDA9
S315878044500025E6E70C480DF066FD20460FF0DAFB6F
S31587804460F6E700BFB0FD84875DFE8487D1FD8487AC
S3158780447027051956E8FD8487FDFD848715FE848781
S3158780448030FE848741FE848745FE8487012AF8B576
S3158780449015461F4605DC0C4B1868BDE8F840FFF7C4
S315878044A0A3BF002601241022002157F824003CF060
S315878044B0F3FAFFF799FF0134002818BF0126A54232
S315878044C0F1D13046F8BD00BF848D868773B50546A2
S315878044D00D480E4608F03AF910B9002002B070BD33
S315878044E00A493BF030FA04460028F6D1084BCDE9D5
S315878044F00060196807483CF046FA6B4601222146D8
S315878045002846FFF715FFE9E77F8D8487B2878487FB
S31587804510848D8687898D848737B50546064C074877
S31587804520CDE90023241A0B460549A4102A46614300
S3158780453010F0B6F903B030BD48B18687ACA68687BA
S31587804540B76DDBB600B5B3B0C822694600203AF0AE
S315878045500DFA3CF018FA05480DF0E5FC04480DF095
S31587804560E2FC002033B05DF804FB00BFB7CE8487BA
S3158780457007CF84872DE9F34D044610460D461646A8
S315878045801F4616F029F9022C80463ED004DC012C82
S3158780459004D84FF0FF3442E0032C69D066496868B7
S315878045A03BF0D1F90446002840F0948001461022DA
S315878045B0A8683CF071FA214683461022E8683CF069
S315878045C06BFA21468246102228693CF065FA0546B1
S315878045D0534641463A68009058483CF0D4F92B4672
S315878045E0524639683046CDF800B016F08CFA544A70
S315878045F0544B0446854218BF1A46014652483CF0BA
S31587804600C2F92C1B18BF012409E003224F49686829
S315878046103BF0A4F9044630B9304616F057F9204660
S3158780462002B0BDE8F08D0322494968683BF096F968
S3158780463060B93046396816F067F908B90024EEE71D
S31587804640414644483CF09FF90124E8E704224249E1
S3158780465068683BF083F9044600289AD1304616F07D
S3158780466003F90028EAD041463C483CF08CF9D6E7E6
S315878046703749224668683BF071F9014680B90A2234
S31587804680A8683CF009FA01460546304616F050F987
S3158780469004460028D8D13D6031483CF074F9BEE79E
S315878046A02D49042268683BF059F9014600287FF432
S315878046B070AF0A22A8683CF0EFF904460146304677
S315878046C016F0F1F80028B9D02246414625483CF0B5
S315878046D05AF9B9E7244968683BF035F904460028D2
S315878046E07FF457AF01461022A8683CF0D5F921465A
S315878046F083461022E8683CF0CFF92146824610220D
S3158780470028693CF0C9F90546534641463A68009080
S3158780471016483CF038F92B46524639683046CDF8EC
S3158780472000B016F01DFA064A064B0446854218BF26
S315878047301A4601460E4862E71A588587F183848729
S3158780474070838487738384872184848779838487A6
S31587804750B5F884877D838487A16C8587978384874B
S31587804760B9838487D48384876B4485873684848713
S315878047706784848738B504461A4826F027FA05461B
S3158780478020460EF02DFD012829D12268164B9A42A4
S3158780479004D016480DF0C7FB012038BD20460EF0A1
S315878047A055FB08B91248F5E72DB120460EF063FB15
S315878047B008B91048EEE7A37F062B01D00E48E9E7B4
S315878047C0236C04F1400019BA0BB90C48E2E70268FA
S315878047D00430002AFBD1BDE838400FF072BF084805
S315878047E0D8E700BF00008587270519560700858784
S315878047F019008587290085873700858747008587BC
S3158780480055008587012A10B50FDD1022002158684B
S315878048103CF042F90446214605483CF0B4F82046E8
S31587804820BDE810400021FFF7A5BF024CF3E700BF24
S315878048303BCA8487000080800B4608220146014850
S315878048403CF0A1B88219858710B5D9F800402548EC
S31587804850216CFFF7F1FF616C2348FFF7EDFFE36C6F
S315878048605BB100212148FFF7E7FFA16C2048FFF75E
S31587804870E3FFE16C1F48FFF7DFFFD9F808101E4872
S315878048803CF081F81D48D9F8D010FFF7D5FF1C4832
S31587804890D9F83C10FFF7D0FF1A48D9F85010FFF7A0
S315878048A0CBFF1948D9F84810FFF7C6FF1748D9F8BC
S315878048B04C10FFF7C1FF1648D9F81C10FFF7BCFFCD
S315878048C04FF40052D9F8A81012483CF05CF8D9F812
S315878048D0682022B1D9F868100F48FFF7ADFF00200E
S315878048E010BD00BF28A6848734A6848740A6848780
S315878048F04AA6848753A684875BA6848771A684877E
S315878049007AA6848784A684878EA6848795A68487B5
S315878049109FA68487A9A68487C7A68487012A2DE927
S31587804920F04105460E4611DD571E0A490222586810
S3158780493003F104080FF055FF40B1C46843463A46F1
S3158780494031462846A446BDE8F04160474FF0FF30A0
S31587804950BDE8F081CCB68587032A38B51C4616D143
S315878049600022586811463CF097F800220546114682
S31587804970A0683CF091F804460146284616F0E0FA8E
S315878049802A46214603483BF0FEFF002038BD4FF07C
S31587804990FF30FBE7E685848700B589B003A816F0E4
S315878049A0FFFA079B03A90193069B044800930EC9C8
S315878049B03BF0E9FF002009B05DF804FB1686848703
S315878049C02DE9F04105460E46571E0A490222586848
S315878049D003F104080FF005FF40B1C46843463A46A1
S315878049E031462846A446BDE8F04160474FF0FF3000
S315878049F0BDE8F08104B78587012A10B504D0022ADD
S31587804A0010D04FF0FF3010BD214B1C682378422B86
S31587804A1003D163784D2B00D15CB91E483BF0B3FF39
S31587804A200120F0E71022002158683CF035F80446CB
S31587804A30ECE7E37DA27DE17C42EA0322237E607EEA
S31587804A4042EA0342A37C42EA006243EA0123217D4C
S31587804A50114843EA0143617D43EA01613BF093FF55
S31587804A60237F617F0D4843EA01213BF08CFFE17FFD
S31587804A70A37F0B4843EA012394F8201043EA014336
S31587804A8094F8211043EA01613BF07DFF0020BAE765
S31587804A90848D8687D0A6848701A784871AA78487EB
S31587804AA02EA78487F7B503780446422B0E4617468A
S31587804AB003D143784D2B00D128B90F483BF063FF4C
S31587804AC0012003B0F0BD1BF0E9FE90B147F6FF7574
S31587804AD0AE420CD07B1B5D425D413B4632462146CA
S31587804AE000951BF01DFB003818BF0120E9E70125DB
S31587804AF0F3E76FF01200F6E7D0A6848773B515467D
S31587804B000026684601A91C46CDE900660CF02CFD77
S31587804B10022D0CD0042D11D0012D34D11B4B1D684D
S31587804B202846DDE90012FFF7BDFF02B070BD10226F
S31587804B30314660683BF0B0FF0546F1E73146102283
S31587804B4060683BF0A9FF12490546A0683AF0FBFEEC
S31587804B5058B947F6FF7300930D49E0683AF0F3FE3C
S31587804B6050B947F6FF730193DAE70A223146A06880
S31587804B703BF092FF0090EFE70A220021E0683BF046
S31587804B808BFF0190CCE74FF0FF30CEE7848D868709
S31587804B9008D28487F7B5144640F6FF720027A21895
S31587804BA020F47F65C0F30B001E4643F1000380180F
S31587804BB043F10003000B25F00F0540EA035239467F
S31587804BC02846019700971B0B33F0C4F830B12A46E5
S31587804BD03B46CDE9004602483BF0D5FE03B0F0BDA3
S31587804BE048D684872DE9F045002487B00646424813
S31587804BF0CDE9024407F0AAFD05462EF003F9012286
S31587804C00DFF8F8803E4FD8F83C3001920094D3F88D
S31587804C10984030463B683B4904AAA04704462EF015
S31587804C20DDF824B1384C204607B0BDE8F085049B73
S31587804C30C3E906448DB34FF0FF31284635F000FC33
S31587804C40441C02212046DDF810A00DF07FFE049BD0
S31587804C50CAF81C00D3F81CA0BAF1000F11D12B48D3
S31587804C603BF091FE2EF0CEF8D8F83C303A68D3F8F0
S31587804C709C40244953463046A0472EF0AFF8244CB3
S31587804C80D1E7294655464FF0FF3205A8CDF814A0BF
S31587804C9035F040FC049B64009C612EF0B3F8D8F80D
S31587804CA03C303046D3F89C403A6800231549A04764
S31587804CB004462EF093F8002CB5D12EF0A3F802A9DE
S31587804CC003AA30462FF0BEF904462EF087F811489E
S31587804CD024F000413BF057FE3CB1039929B10E4839
S31587804CE03BF051FE039833F077FA2EF039FA28464F
S31587804CF00DF068FB97E700BF6CAD84879006808749
S31587804D00BC448887D042848702000080B7A784877F
S31587804D1009000080CDA78487F1A784872DE9F04194
S31587804D200546D0B04FF49872002104A8FCF7D8F8CE
S31587804D30002D3BD1734FDFF8D08100E001353B6C86
S31587804D409D4218D2142303FB05F6796C10224046C0
S31587804D5031443AF0CEFE04460028EFD17B6C33444B
S31587804D60597C1A7C42EA0122997CDB7C42EA0142A1
S31587804D7052EA03630BD1654807F0E8FC58B9644863
S31587804D8007F0E4FC38B963483BF0FDFD624C20466A
S31587804D9050B0BDE8F081102200213BF07DFE0546AC
S31587804DA020B95E483BF0EFFD5D4CF0E7284637F04B
S31587804DB0C3FD0646002867D05A48F3E7029E6A688D
S31587804DC0294612BA3046FCF7DBF80023240504F41B
S31587804DD07F0444EA17643F0A07F47F473C4374603D
S31587804DE0029D1A46294604A80FF0B6FA044608B1EA
S31587804DF04D48D7E7284638F0DDFA0646A64211DCC5
S31587804E0000212846494A38F055FB011E19DA29467A
S31587804E103D482FF0E5FC04460028B8D044483BF04F
S31587804E20B2FDB4E76A462146284602AB38F0A3FA34
S31587804E3028B9DDE90223DDE90001FFF7ABFE0134FE
S31587804E40DCE7284637F097FE00270446394E002C44
S31587804E50DDDB32462146284602AB38F09FFFCDE917
S31587804E60000701300AD02146284638F05DFD28B1F3
S31587804E70DDE90223DDE90001FFF78CFE214628461E
S31587804E8037F08CFE0446E2E7D9F80030D9F800205F
S31587804E909B6CD26C6C68002A40F6FF7208BF4FF015
S31587804EA0FF3324BA04F54054A41840F10002240B3A
S31587804EB044EA025403F1FE6303EB0433CDE90230FF
S31587804EC022460421012002AB270333F0BFF800284E
S31587804ED03FF474AF39464FF480500DF0EFFE22468B
S31587804EE0CDE902060421012002AB33F0AFF8002812
S31587804EF03FF464AF10483BF046FD10483BF043FDD6
S31587804F000F4C44E79006808790428487D0D38487E6
S31587804F10D9D38487E8D384870E00008001D4848799
S31587804F20010000802ED4848788D48487AED48487F2
S31587804F30C2D48487BED484874AD4848772D48487AC
S31587804F40090000800023F0B585B002931F4B064683
S31587804F5018680F4610B11E4B1968F1B9002332467F
S31587804F601846CDE9007330F029FF054602A82EF052
S31587804F70D7F9044630B92A46164902982FF0DEFAC1
S31587804F80044668B1029808B12EF0CAFD15B1284645
S31587804F9033F022F9204605B0F0BD30F08FFD054607
S31587804FA02DF030FF03AB0C490193009733462A4691
S31587804FB0002009682FF0F0FC04462DF00FFF002CA7
S31587804FC0E0D10398FFF70EFE0446DBE788C3868722
S31587804FD08CC3868720428487BC448887012A37B5D5
S31587804FE014461D4603DC4FF0FF3003B030BD33F0E7
S31587804FF091FB014630B120F000411F483BF0C3FC4E
S315878050000120F2E7022C03D01022A8683BF044FDEA
S31587805010FFF784FE194B04469842E4D00028EFD1E7
S31587805020174968683AF08FFC70B901A82DF04AFE57
S3158780503018B114483BF0A7FCE2E70198FFF7D2FD49
S31587805040003818BF0120D0E70F486D6807F07EFBD0
S3158780505020B1214610223BF01FFD044610220021F5
S3158780506028463BF019FD10B92B78302BBBD12146CA
S31587805070FFF768FFE4E700BF4AA7848702000080BE
S315878050807DA7848785A78487AEA784872DE9F04502
S315878050900F4690460646144D144C85B0286833F0E3
S315878050A09BF80DF10C0A206833F096F8424639460C
S315878050B03046CDF800A002AB30F000FF80B9029B66
S315878050C02B60039D3DB15246284602A930F0C6FE25
S315878050D0284633F081F8039B236005B0BDE8F085C9
S315878050E000232B60F8E700BF88C386878CC38687B3
S315878050F02DE9F04503F1040A1F460123204C87B02A
S31587805100551ECDE9003402932A46534680460E467D
S3158780511009F0E0F965B91B4B1B682366206E05AAE3
S3158780512004A9FCF75BFA50B1012007B0BDE8F0858A
S315878051301022002178683BF0AFFC2066EEE7216E6F
S31587805140DDE904321048D21A39F0DFFE5246294605
S31587805150304609F081F90028E6D109F0B3F90523AD
S3158780516084F85E30012302934FF4E2632A460093E4
S31587805170314653464046019409F0ACF9D5E700BFDE
S3158780518074CD8687848D868704CE868710B50B49AE
S3158780519004463AF0D8FB68B1204609493AF0D3FBF2
S315878051A050B1204607493AF0CEFB003818BF012018
S315878051B0404210BD0220FCE70120FAE72315858748
S315878051C0EE2085878AA68487012A10B519D0022A78
S315878051D003D04FF0FF34204610BD5868FFF7D6FFBF
S315878051E00128044606D0022808D00028F1D1FCF78A
S315878051F039FCF0E7FCF72DFC0024ECE7FBF764FD30
S31587805200FAE7FCF733FC044A0449002818BF11469D
S3158780521003483BF0B8FBEFE74689858758BC848788
S315878052205CBC8487012A10B519D0022A03D04FF037
S31587805230FF34204610BD5868FFF7A8FF012804462B
S3158780524006D0022808D00028F1D1FCF74BFCF0E77E
S31587805250FCF711FC0024ECE7FBF743FDFAE7FCF744
S3158780526044FC044A0449002818BF114603483BF08A
S315878052708AFBEFE74689858758BC84872FAE8487E4
S315878052802DE9F34D0FF0E2F805461C480CF04BFEEE
S31587805290DFF86C802C68DFF86CA0AC4203D10020E5
S315878052A002B0BDE8F08D54F8442C174E12F0010FEA
S315878052B014BF49232E2312F0020F14BF4F212E21AC
S315878052C040460091114FA4F13C013BF05CFBA4F171
S315878052D0440B06F10C0356F8042B5A4504D15046E5
S315878052E039683BF050FB0A4BB34207F10407F2D18A
S315878052F00A200CF029FE2468CFE700BFF7AD8487A4
S3158780530013AE84873C908487F0268787888D8687A7
S31587805310FC26878700207047012AF8B50E461446F3
S315878053201D4615DD042258680B490FF05AFAA21ECE
S3158780533005F10803044658B14168914208DB314636
S31587805340C768B84701462046BDE8F8400FF0ACBD30
S315878053504FF0FF30F8BD00BFD0BA858708B513F008
S3158780536077FC002008BD08B513F022FC002008BD15
S3158780537008B513F005FC002008BD00002DE9F04D27
S315878053804FF0010A16461F465546DFF86C80B542B0
S3158780539008DBBAF1000F02D00A200CF0D5FD002079
S315878053A0BDE8F08D012D57F825B002D020200CF06E
S315878053B0CBFD414658463AF0ABFB0446B8B14FF031
S315878053C0000A584684F800A00CF0ADFDA3465C23FE
S315878053D00BF8023B414658463AF09AFB044600282A
S315878053E0EFD158460CF09FFDA2460135CFE7584648
S315878053F00CF099FDF9E700BF9FAE84872DE9F845C4
S3158780540003790446022B35D100264FF03808076A80
S315878054100744238F08FB06759E4209DB638AA0694A
S31587805420152B03D1236BDB0700D50068BDE8F8858C
S31587805430D5E908231343D5F818A004D0A968504620
S315878054402144FBF79DFDD5E90801D5E90A239942D1
S3158780545008BF904204D0121A00215044FBF740FDC2
S31587805460A96A2AF03F003F3121F03F01FCF782FA93
S315878054700136CEE70026C7690744A38D07EB461515
S31587805480B34201DCA069D1E72A69D5F80C8022B1BD
S31587805490696840462144FBF773FD28696A699042AB
S315878054A004D0121A00214044FBF71AFD696928F057
S315878054B03F003F3121F03F01FCF75CFA0136DCE79C
S315878054C008B5084B026801469A4204D006483BF0E5
S315878054D05AFA002008BD038A022B01D00348F6E7D3
S315878054E00120F7E77F454C46559A8587799A858740
S315878054F02DE9F34D92465F481C4607F027F90AF156
